{
  "contractName": "Auction",
  "abi": [
    {
      "anonymous": false,
      "inputs": [
        {
          "indexed": false,
          "name": "by",
          "type": "string"
        },
        {
          "indexed": false,
          "name": "charge",
          "type": "uint256"
        }
      ],
      "name": "Bid",
      "type": "event"
    },
    {
      "anonymous": false,
      "inputs": [
        {
          "indexed": false,
          "name": "length",
          "type": "uint256"
        }
      ],
      "name": "Error",
      "type": "event"
    },
    {
      "constant": false,
      "inputs": [
        {
          "name": "bidder_name",
          "type": "string"
        },
        {
          "name": "charge",
          "type": "uint256"
        },
        {
          "name": "objectId",
          "type": "uint256"
        }
      ],
      "name": "bid",
      "outputs": [
        {
          "name": "",
          "type": "uint256"
        }
      ],
      "payable": false,
      "stateMutability": "nonpayable",
      "type": "function"
    },
    {
      "constant": true,
      "inputs": [
        {
          "name": "bidder",
          "type": "address"
        }
      ],
      "name": "getBidderName",
      "outputs": [
        {
          "name": "",
          "type": "string"
        }
      ],
      "payable": false,
      "stateMutability": "view",
      "type": "function"
    },
    {
      "constant": true,
      "inputs": [
        {
          "name": "bidder",
          "type": "address"
        }
      ],
      "name": "getBidderCharge",
      "outputs": [
        {
          "name": "",
          "type": "uint256"
        }
      ],
      "payable": false,
      "stateMutability": "view",
      "type": "function"
    },
    {
      "constant": true,
      "inputs": [
        {
          "name": "bidder",
          "type": "address"
        }
      ],
      "name": "getBiddedObjecId",
      "outputs": [
        {
          "name": "",
          "type": "uint256"
        }
      ],
      "payable": false,
      "stateMutability": "view",
      "type": "function"
    }
  ],
  "bytecode": "0x608060405234801561001057600080fd5b5061071b806100206000396000f3fe608060405234801561001057600080fd5b506004361061004c5760003560e01c806319fa830b1461005157806340a9f510146100a95780634a1ec53e1461010157806383483f95146101e4575b600080fd5b6100936004803603602081101561006757600080fd5b81019080803573ffffffffffffffffffffffffffffffffffffffff1690602001909291905050506102a1565b6040518082815260200191505060405180910390f35b6100eb600480360360208110156100bf57600080fd5b81019080803573ffffffffffffffffffffffffffffffffffffffff1690602001909291905050506102ed565b6040518082815260200191505060405180910390f35b6101ce6004803603606081101561011757600080fd5b810190808035906020019064010000000081111561013457600080fd5b82018360208201111561014657600080fd5b8035906020019184600183028401116401000000008311171561016857600080fd5b91908080601f016020809104026020016040519081016040528093929190818152602001838380828437600081840152601f19601f8201169050808301925050505050505091929192908035906020019092919080359060200190929190505050610339565b6040518082815260200191505060405180910390f35b610226600480360360208110156101fa57600080fd5b81019080803573ffffffffffffffffffffffffffffffffffffffff16906020019092919050505061047b565b6040518080602001828103825283818151815260200191508051906020019080838360005b8381101561026657808201518184015260208101905061024b565b50505050905090810190601f1680156102935780820380516001836020036101000a031916815260200191505b509250505060405180910390f35b6000600160008373ffffffffffffffffffffffffffffffffffffffff1673ffffffffffffffffffffffffffffffffffffffff168152602001908152602001600020600101549050919050565b6000600160008373ffffffffffffffffffffffffffffffffffffffff1673ffffffffffffffffffffffffffffffffffffffff168152602001908152602001600020600201549050919050565b60008082101561034857600080fd5b6000808381526020019081526020016000206000013390806001815401808255809150509060018203906000526020600020016000909192909190916101000a81548173ffffffffffffffffffffffffffffffffffffffff021916908373ffffffffffffffffffffffffffffffffffffffff160217905550506103cd3385858561055f565b7f0f88f9d254e4bcac755af613d1aa8e54f10babfbf9fd6fd93d4c16a231657cea84846040518080602001838152602001828103825284818151815260200191508051906020019080838360005b8381101561043657808201518184015260208101905061041b565b50505050905090810190601f1680156104635780820380516001836020036101000a031916815260200191505b50935050505060405180910390a18190509392505050565b6060600160008373ffffffffffffffffffffffffffffffffffffffff1673ffffffffffffffffffffffffffffffffffffffff1681526020019081526020016000206000018054600181600116156101000203166002900480601f0160208091040260200160405190810160405280929190818152602001828054600181600116156101000203166002900480156105535780601f1061052857610100808354040283529160200191610553565b820191906000526020600020905b81548152906001019060200180831161053657829003601f168201915b50505050509050919050565b82600160008673ffffffffffffffffffffffffffffffffffffffff1673ffffffffffffffffffffffffffffffffffffffff16815260200190815260200160002060000190805190602001906105b592919061064a565b5081600160008673ffffffffffffffffffffffffffffffffffffffff1673ffffffffffffffffffffffffffffffffffffffff1681526020019081526020016000206001018190555080600160008673ffffffffffffffffffffffffffffffffffffffff1673ffffffffffffffffffffffffffffffffffffffff1681526020019081526020016000206002018190555050505050565b828054600181600116156101000203166002900490600052602060002090601f016020900481019282601f1061068b57805160ff19168380011785556106b9565b828001600101855582156106b9579182015b828111156106b857825182559160200191906001019061069d565b5b5090506106c691906106ca565b5090565b6106ec91905b808211156106e85760008160009055506001016106d0565b5090565b9056fea165627a7a723058209f6b2370216e6ff2883d940f53edc44b039c0ca743dd48c47eb8bb56903e76e10029",
  "source": "pragma solidity ^0.5.3;\n\ncontract Auction {\n\n  struct AuctionInfo {\n\n    string name;\n    uint charge;\n    uint goodId;\n\n  }\n\n  struct Bidder {\n    address[] bidder;\n  }\n\n  event Bid (\n      string by,\n      uint charge\n\n  );\n\n  event Error (\n      uint length\n  );\n\n\n  mapping (uint => Bidder) internal mulBidders;\n\n\n  mapping (address => AuctionInfo) internal auctionInfos;\n\n  //Adopting pet\n  function bid(string memory bidder_name, uint charge ,uint objectId) public returns (uint) {\n    require(objectId >= 0);\n\n    //you can use the below code when you want to use Bidder as a array\n    // Bidder memory bidder = Bidder(msg.sender);\n    // mulBidders[objectId].push(bidder);\n\n    mulBidders[objectId].bidder.push(msg.sender);\n\n    setAuctionInfo(msg.sender,bidder_name, charge, objectId);\n    emit Bid(bidder_name, charge);\n\n    return objectId;\n  }\n\n  //get bidder name\n  function getBidderName(address bidder) external view returns (string memory) {\n    return auctionInfos[bidder].name;\n  }\n\n  //get bidder charge\n  function getBidderCharge(address bidder) external view returns (uint) {\n    return auctionInfos[bidder].charge;\n  }\n\n  //get bidders bidded product id\n  function getBiddedObjecId(address bidder) external view returns (uint) {\n    return auctionInfos[bidder].goodId;\n  }\n\n  // function getBiddersWithId(uint _id) external returns (address[] memory) {\n  //   address[] memory tempBidder;\n  //\n  //   for (uint i = 0; i < mulBidders[_id].bidder.length; i++) {\n  //       tempBidder[i] = mulBidders[_id].bidder[i];\n  //\n  //   }\n  //   emit Error(tempBidder.length);\n  //\n  //   return tempBidder;\n  // }\n\n  function setAuctionInfo(address _address, string memory _name, uint _charge, uint _goodId) internal {\n\n\n    auctionInfos[_address].name = _name;\n    auctionInfos[_address].charge = _charge;\n    auctionInfos[_address].goodId = _goodId;\n\n  }\n\n}\n",
  "sourcePath": "/home/cecilimon/Auctionly/contracts/Auction.sol",
  "compiler": {
    "name": "solc",
    "version": "0.5.8+commit.23d335f2.Emscripten.clang"
  },
  "schemaVersion": "3.0.17",
  "updatedAt": "2019-11-28T09:54:37.131Z",
  "networkType": "ethereum",
  "devdoc": {
    "methods": {}
  },
  "userdoc": {
    "methods": {}
  }
}