{
  "contractName": "Auction",
  "abi": [
    {
      "anonymous": false,
      "inputs": [
        {
          "indexed": false,
          "name": "by",
          "type": "string"
        },
        {
          "indexed": false,
          "name": "charge",
          "type": "uint256"
        }
      ],
      "name": "Bid",
      "type": "event"
    },
    {
      "anonymous": false,
      "inputs": [
        {
          "indexed": false,
          "name": "length",
          "type": "uint256"
        }
      ],
      "name": "Error",
      "type": "event"
    },
    {
      "constant": false,
      "inputs": [
        {
          "name": "bidder_name",
          "type": "string"
        },
        {
          "name": "charge",
          "type": "uint256"
        },
        {
          "name": "objectId",
          "type": "uint256"
        }
      ],
      "name": "bid",
      "outputs": [
        {
          "name": "",
          "type": "uint256"
        }
      ],
      "payable": false,
      "stateMutability": "nonpayable",
      "type": "function"
    },
    {
      "constant": true,
      "inputs": [
        {
          "name": "bidder",
          "type": "address"
        }
      ],
      "name": "getBidderName",
      "outputs": [
        {
          "name": "",
          "type": "string"
        }
      ],
      "payable": false,
      "stateMutability": "view",
      "type": "function"
    },
    {
      "constant": true,
      "inputs": [
        {
          "name": "bidder",
          "type": "address"
        }
      ],
      "name": "getBidderCharge",
      "outputs": [
        {
          "name": "",
          "type": "uint256"
        }
      ],
      "payable": false,
      "stateMutability": "view",
      "type": "function"
    },
    {
      "constant": true,
      "inputs": [
        {
          "name": "bidder",
          "type": "address"
        }
      ],
      "name": "getBiddedObjecId",
      "outputs": [
        {
          "name": "",
          "type": "uint256"
        }
      ],
      "payable": false,
      "stateMutability": "view",
      "type": "function"
    },
    {
      "constant": false,
      "inputs": [
        {
          "name": "_id",
          "type": "uint256"
        }
      ],
      "name": "getBiddersAddressWithId",
      "outputs": [
        {
          "name": "",
          "type": "address[]"
        }
      ],
      "payable": false,
      "stateMutability": "nonpayable",
      "type": "function"
    }
  ],
  "bytecode": "0x608060405234801561001057600080fd5b50610a3b806100206000396000f3fe608060405234801561001057600080fd5b50600436106100575760003560e01c806319fa830b1461005c57806340a9f510146100b45780634a1ec53e1461010c57806383483f95146101ef5780638364ca8c146102ac575b600080fd5b61009e6004803603602081101561007257600080fd5b81019080803573ffffffffffffffffffffffffffffffffffffffff16906020019092919050505061032f565b6040518082815260200191505060405180910390f35b6100f6600480360360208110156100ca57600080fd5b81019080803573ffffffffffffffffffffffffffffffffffffffff16906020019092919050505061037b565b6040518082815260200191505060405180910390f35b6101d96004803603606081101561012257600080fd5b810190808035906020019064010000000081111561013f57600080fd5b82018360208201111561015157600080fd5b8035906020019184600183028401116401000000008311171561017357600080fd5b91908080601f016020809104026020016040519081016040528093929190818152602001838380828437600081840152601f19601f82011690508083019250505050505050919291929080359060200190929190803590602001909291905050506103c7565b6040518082815260200191505060405180910390f35b6102316004803603602081101561020557600080fd5b81019080803573ffffffffffffffffffffffffffffffffffffffff169060200190929190505050610509565b6040518080602001828103825283818151815260200191508051906020019080838360005b83811015610271578082015181840152602081019050610256565b50505050905090810190601f16801561029e5780820380516001836020036101000a031916815260200191505b509250505060405180910390f35b6102d8600480360360208110156102c257600080fd5b81019080803590602001909291905050506105ed565b6040518080602001828103825283818151815260200191508051906020019060200280838360005b8381101561031b578082015181840152602081019050610300565b505050509050019250505060405180910390f35b6000600160008373ffffffffffffffffffffffffffffffffffffffff1673ffffffffffffffffffffffffffffffffffffffff168152602001908152602001600020600101549050919050565b6000600160008373ffffffffffffffffffffffffffffffffffffffff1673ffffffffffffffffffffffffffffffffffffffff168152602001908152602001600020600201549050919050565b6000808210156103d657600080fd5b6000808381526020019081526020016000206000013390806001815401808255809150509060018203906000526020600020016000909192909190916101000a81548173ffffffffffffffffffffffffffffffffffffffff021916908373ffffffffffffffffffffffffffffffffffffffff1602179055505061045b338585856107b2565b7f0f88f9d254e4bcac755af613d1aa8e54f10babfbf9fd6fd93d4c16a231657cea84846040518080602001838152602001828103825284818151815260200191508051906020019080838360005b838110156104c45780820151818401526020810190506104a9565b50505050905090810190601f1680156104f15780820380516001836020036101000a031916815260200191505b50935050505060405180910390a18190509392505050565b6060600160008373ffffffffffffffffffffffffffffffffffffffff1673ffffffffffffffffffffffffffffffffffffffff1681526020019081526020016000206000018054600181600116156101000203166002900480601f0160208091040260200160405190810160405280929190818152602001828054600181600116156101000203166002900480156105e15780601f106105b6576101008083540402835291602001916105e1565b820191906000526020600020905b8154815290600101906020018083116105c457829003601f168201915b50505050509050919050565b606080806002908051906020019061060692919061089d565b5060008090505b600080858152602001908152602001600020600001805490508110156106ea576002600080868152602001908152602001600020600001828154811061064f57fe5b9060005260206000200160009054906101000a900473ffffffffffffffffffffffffffffffffffffffff1690806001815401808255809150509060018203906000526020600020016000909192909190916101000a81548173ffffffffffffffffffffffffffffffffffffffff021916908373ffffffffffffffffffffffffffffffffffffffff16021790555050808060010191505061060d565b507f2e36a7093f25f22bd4cbdeb6040174c3ba4c5fe8f1abc04e7c3c48f26c7413e081516040518082815260200191505060405180910390a160028054806020026020016040519081016040528092919081815260200182805480156107a557602002820191906000526020600020905b8160009054906101000a900473ffffffffffffffffffffffffffffffffffffffff1673ffffffffffffffffffffffffffffffffffffffff168152602001906001019080831161075b575b5050505050915050919050565b82600160008673ffffffffffffffffffffffffffffffffffffffff1673ffffffffffffffffffffffffffffffffffffffff1681526020019081526020016000206000019080519060200190610808929190610927565b5081600160008673ffffffffffffffffffffffffffffffffffffffff1673ffffffffffffffffffffffffffffffffffffffff1681526020019081526020016000206001018190555080600160008673ffffffffffffffffffffffffffffffffffffffff1673ffffffffffffffffffffffffffffffffffffffff1681526020019081526020016000206002018190555050505050565b828054828255906000526020600020908101928215610916579160200282015b828111156109155782518260006101000a81548173ffffffffffffffffffffffffffffffffffffffff021916908373ffffffffffffffffffffffffffffffffffffffff160217905550916020019190600101906108bd565b5b50905061092391906109a7565b5090565b828054600181600116156101000203166002900490600052602060002090601f016020900481019282601f1061096857805160ff1916838001178555610996565b82800160010185558215610996579182015b8281111561099557825182559160200191906001019061097a565b5b5090506109a391906109ea565b5090565b6109e791905b808211156109e357600081816101000a81549073ffffffffffffffffffffffffffffffffffffffff0219169055506001016109ad565b5090565b90565b610a0c91905b80821115610a085760008160009055506001016109f0565b5090565b9056fea165627a7a72305820af453ad7770db3176ea6502f7f1e825cde1119e0885e05b7e0f9c6c8a212162a0029",
  "source": "pragma solidity ^0.5.3;\n\n\ncontract Auction {\n\n  struct AuctionInfo {\n\n    string name;\n    uint charge;\n    uint goodId;\n\n  }\n\n  struct Bidder {\n    address[] bidder;\n  }\n\n  event Bid (\n      string by,\n      uint charge\n\n  );\n\n  event Error (\n      uint length\n  );\n\n\n  mapping (uint => Bidder) internal mulBidders;\n\n\n  mapping (address => AuctionInfo) internal auctionInfos;\n  address[] bidderArray;\n\n  //Adopting pet\n  function bid(string memory bidder_name, uint charge ,uint objectId) public returns (uint) {\n    require(objectId >= 0);\n\n    //you can use the below code when you want to use Bidder as a array\n    // Bidder memory bidder = Bidder(msg.sender);\n    // mulBidders[objectId].push(bidder);\n\n    mulBidders[objectId].bidder.push(msg.sender);\n\n    setAuctionInfo(msg.sender,bidder_name, charge, objectId);\n    emit Bid(bidder_name, charge);\n\n    return objectId;\n  }\n\n  //get bidder name\n  function getBidderName(address bidder) external view returns (string memory) {\n    return auctionInfos[bidder].name;\n  }\n\n  //get bidder charge\n  function getBidderCharge(address bidder) external view returns (uint) {\n    return auctionInfos[bidder].charge;\n  }\n\n  //get bidders bidded product id\n  function getBiddedObjecId(address bidder) external view returns (uint) {\n    return auctionInfos[bidder].goodId;\n  }\n\n  function getBiddersAddressWithId(uint _id) external returns (address[] memory) {\n     address[] memory tempBidder;\n     bidderArray = tempBidder;\n\n     for (uint i = 0; i <mulBidders[_id].bidder.length; i++) {\n         bidderArray.push(mulBidders[_id].bidder[i]);\n\n     }\n     emit Error(tempBidder.length);\n\n     return bidderArray;\n  }\n\n\n  function setAuctionInfo(address _address, string memory _name, uint _charge, uint _goodId) internal {\n\n\n    auctionInfos[_address].name = _name;\n    auctionInfos[_address].charge = _charge;\n    auctionInfos[_address].goodId = _goodId;\n\n  }\n\n}\n",
  "sourcePath": "/home/cecilimon/Auctionly/contracts/Auction.sol",
  "compiler": {
    "name": "solc",
    "version": "0.5.8+commit.23d335f2.Emscripten.clang"
  },
  "schemaVersion": "3.0.17",
  "updatedAt": "2019-11-29T07:07:41.266Z",
  "networkType": "ethereum",
  "devdoc": {
    "methods": {}
  },
  "userdoc": {
    "methods": {}
  }
}