{
  "contractName": "Etherep",
  "abi": [
    {
      "inputs": [
        {
          "name": "_manager",
          "type": "address"
        },
        {
          "name": "_fee",
          "type": "uint256"
        },
        {
          "name": "_storageAddress",
          "type": "address"
        },
        {
          "name": "_wait",
          "type": "uint256"
        }
      ],
      "payable": false,
      "stateMutability": "nonpayable",
      "type": "constructor"
    },
    {
      "anonymous": false,
      "inputs": [
        {
          "indexed": false,
          "name": "sender",
          "type": "address"
        },
        {
          "indexed": false,
          "name": "message",
          "type": "string"
        }
      ],
      "name": "Error",
      "type": "event"
    },
    {
      "anonymous": false,
      "inputs": [
        {
          "indexed": false,
          "name": "message",
          "type": "string"
        }
      ],
      "name": "Debug",
      "type": "event"
    },
    {
      "anonymous": false,
      "inputs": [
        {
          "indexed": false,
          "name": "message",
          "type": "int256"
        }
      ],
      "name": "DebugInt",
      "type": "event"
    },
    {
      "anonymous": false,
      "inputs": [
        {
          "indexed": false,
          "name": "message",
          "type": "uint256"
        }
      ],
      "name": "DebugUint",
      "type": "event"
    },
    {
      "anonymous": false,
      "inputs": [
        {
          "indexed": false,
          "name": "by",
          "type": "address"
        },
        {
          "indexed": false,
          "name": "who",
          "type": "address"
        },
        {
          "indexed": false,
          "name": "rating",
          "type": "int256"
        }
      ],
      "name": "Rating",
      "type": "event"
    },
    {
      "anonymous": false,
      "inputs": [
        {
          "indexed": false,
          "name": "f",
          "type": "uint256"
        }
      ],
      "name": "FeeChanged",
      "type": "event"
    },
    {
      "anonymous": false,
      "inputs": [
        {
          "indexed": false,
          "name": "d",
          "type": "uint256"
        }
      ],
      "name": "DelayChanged",
      "type": "event"
    },
    {
      "constant": false,
      "inputs": [
        {
          "name": "d",
          "type": "bool"
        }
      ],
      "name": "setDebug",
      "outputs": [],
      "payable": false,
      "stateMutability": "nonpayable",
      "type": "function"
    },
    {
      "constant": true,
      "inputs": [],
      "name": "getDebug",
      "outputs": [
        {
          "name": "",
          "type": "bool"
        }
      ],
      "payable": false,
      "stateMutability": "view",
      "type": "function"
    },
    {
      "constant": false,
      "inputs": [
        {
          "name": "newFee",
          "type": "uint256"
        }
      ],
      "name": "setFee",
      "outputs": [],
      "payable": false,
      "stateMutability": "nonpayable",
      "type": "function"
    },
    {
      "constant": true,
      "inputs": [],
      "name": "getFee",
      "outputs": [
        {
          "name": "",
          "type": "uint256"
        }
      ],
      "payable": false,
      "stateMutability": "view",
      "type": "function"
    },
    {
      "constant": false,
      "inputs": [
        {
          "name": "_delay",
          "type": "uint256"
        }
      ],
      "name": "setDelay",
      "outputs": [],
      "payable": false,
      "stateMutability": "nonpayable",
      "type": "function"
    },
    {
      "constant": true,
      "inputs": [],
      "name": "getDelay",
      "outputs": [
        {
          "name": "",
          "type": "uint256"
        }
      ],
      "payable": false,
      "stateMutability": "view",
      "type": "function"
    },
    {
      "constant": false,
      "inputs": [
        {
          "name": "who",
          "type": "address"
        }
      ],
      "name": "setManager",
      "outputs": [],
      "payable": false,
      "stateMutability": "nonpayable",
      "type": "function"
    },
    {
      "constant": true,
      "inputs": [],
      "name": "getManager",
      "outputs": [
        {
          "name": "",
          "type": "address"
        }
      ],
      "payable": false,
      "stateMutability": "view",
      "type": "function"
    },
    {
      "constant": false,
      "inputs": [
        {
          "name": "who",
          "type": "address"
        },
        {
          "name": "rating",
          "type": "int256"
        }
      ],
      "name": "rate",
      "outputs": [],
      "payable": true,
      "stateMutability": "payable",
      "type": "function"
    },
    {
      "constant": true,
      "inputs": [
        {
          "name": "who",
          "type": "address"
        }
      ],
      "name": "getScore",
      "outputs": [
        {
          "name": "score",
          "type": "int256"
        }
      ],
      "payable": false,
      "stateMutability": "view",
      "type": "function"
    },
    {
      "constant": true,
      "inputs": [
        {
          "name": "who",
          "type": "address"
        }
      ],
      "name": "getScoreAndCount",
      "outputs": [
        {
          "name": "score",
          "type": "int256"
        },
        {
          "name": "ratings",
          "type": "uint256"
        }
      ],
      "payable": false,
      "stateMutability": "view",
      "type": "function"
    }
  ],
  "bytecode": "0x608060405234801561001057600080fd5b50604051608080610df18339810180604052608081101561003057600080fd5b810190808051906020019092919080519060200190929190805190602001909291908051906020019092919050505083600060016101000a81548173ffffffffffffffffffffffffffffffffffffffff021916908373ffffffffffffffffffffffffffffffffffffffff1602179055508260018190555081600260006101000a81548173ffffffffffffffffffffffffffffffffffffffff021916908373ffffffffffffffffffffffffffffffffffffffff1602179055508060038190555060008060006101000a81548160ff02191690831515021790555050505050610cd58061011c6000396000f3fe60806040526004361061009c5760003560e01c8063d0ebdbe711610064578063d0ebdbe7146101db578063d184935d1461022c578063d47875d01461025b578063d5009584146102c0578063e177246e14610317578063e7e3e167146103525761009c565b80630c2cb820146100a157806369fe0e2d146100de578063ab413a7e14610119578063cebc9a8214610185578063ced72f87146101b0575b600080fd5b3480156100ad57600080fd5b506100dc600480360360208110156100c457600080fd5b810190808035151590602001909291905050506103a0565b005b3480156100ea57600080fd5b506101176004803603602081101561010157600080fd5b8101908080359060200190929190505050610418565b005b34801561012557600080fd5b506101686004803603602081101561013c57600080fd5b81019080803573ffffffffffffffffffffffffffffffffffffffff1690602001909291905050506104b7565b604051808381526020018281526020019250505060405180910390f35b34801561019157600080fd5b5061019a6105bf565b6040518082815260200191505060405180910390f35b3480156101bc57600080fd5b506101c56105c9565b6040518082815260200191505060405180910390f35b3480156101e757600080fd5b5061022a600480360360208110156101fe57600080fd5b81019080803573ffffffffffffffffffffffffffffffffffffffff1690602001909291905050506105d3565b005b34801561023857600080fd5b50610241610673565b604051808215151515815260200191505060405180910390f35b34801561026757600080fd5b506102aa6004803603602081101561027e57600080fd5b81019080803573ffffffffffffffffffffffffffffffffffffffff169060200190929190505050610689565b6040518082815260200191505060405180910390f35b3480156102cc57600080fd5b506102d56107f2565b604051808273ffffffffffffffffffffffffffffffffffffffff1673ffffffffffffffffffffffffffffffffffffffff16815260200191505060405180910390f35b34801561032357600080fd5b506103506004803603602081101561033a57600080fd5b810190808035906020019092919050505061081b565b005b61039e6004803603604081101561036857600080fd5b81019080803573ffffffffffffffffffffffffffffffffffffffff169060200190929190803590602001909291905050506108ba565b005b600060019054906101000a900473ffffffffffffffffffffffffffffffffffffffff168073ffffffffffffffffffffffffffffffffffffffff163373ffffffffffffffffffffffffffffffffffffffff16146103fb57600080fd5b816000806101000a81548160ff0219169083151502179055505050565b600060019054906101000a900473ffffffffffffffffffffffffffffffffffffffff168073ffffffffffffffffffffffffffffffffffffffff163373ffffffffffffffffffffffffffffffffffffffff161461047357600080fd5b816001819055507f6bbc57480a46553fa4d156ce702beef5f3ad66303b0ed1a5d4cb44966c6584c36001546040518082815260200191505060405180910390a15050565b6000806000600260009054906101000a900473ffffffffffffffffffffffffffffffffffffffff16905060008173ffffffffffffffffffffffffffffffffffffffff1663c2bc2efc866040518263ffffffff1660e01b8152600401808273ffffffffffffffffffffffffffffffffffffffff1673ffffffffffffffffffffffffffffffffffffffff168152602001915050604080518083038186803b15801561055f57600080fd5b505afa158015610573573d6000803e3d6000fd5b505050506040513d604081101561058957600080fd5b81019080805190602001909291908051906020019092919050505080945081925050508281816105b557fe5b0593505050915091565b6000600354905090565b6000600154905090565b600060019054906101000a900473ffffffffffffffffffffffffffffffffffffffff168073ffffffffffffffffffffffffffffffffffffffff163373ffffffffffffffffffffffffffffffffffffffff161461062e57600080fd5b81600060016101000a81548173ffffffffffffffffffffffffffffffffffffffff021916908373ffffffffffffffffffffffffffffffffffffffff1602179055505050565b60008060009054906101000a900460ff16905090565b600080600260009054906101000a900473ffffffffffffffffffffffffffffffffffffffff1690506000808273ffffffffffffffffffffffffffffffffffffffff1663c2bc2efc866040518263ffffffff1660e01b8152600401808273ffffffffffffffffffffffffffffffffffffffff1673ffffffffffffffffffffffffffffffffffffffff168152602001915050604080518083038186803b15801561073057600080fd5b505afa158015610744573d6000803e3d6000fd5b505050506040513d604081101561075a57600080fd5b810190808051906020019092919080519060200190929190505050809250819350505080828161078657fe5b0593506101f484131561079d576101f493506107ea565b7ffffffffffffffffffffffffffffffffffffffffffffffffffffffffffffffe0c8412156107e9577ffffffffffffffffffffffffffffffffffffffffffffffffffffffffffffffe0c93505b5b505050919050565b60008060019054906101000a900473ffffffffffffffffffffffffffffffffffffffff16905090565b600060019054906101000a900473ffffffffffffffffffffffffffffffffffffffff168073ffffffffffffffffffffffffffffffffffffffff163373ffffffffffffffffffffffffffffffffffffffff161461087657600080fd5b816003819055507f91f02f9cd6e47aaaa95af9dbcbdaf771b32a1c9fea1c867ddd1a8fff54fd13f56003546040518082815260200191505060405180910390a15050565b600015156000809054906101000a900460ff16151514801561091e57506003544203600460003373ffffffffffffffffffffffffffffffffffffffff1673ffffffffffffffffffffffffffffffffffffffff16815260200190815260200160002054115b1561092857600080fd5b60015434101561093757600080fd5b6005811315801561096857507ffffffffffffffffffffffffffffffffffffffffffffffffffffffffffffffffb8112155b61097157600080fd5b3373ffffffffffffffffffffffffffffffffffffffff168273ffffffffffffffffffffffffffffffffffffffff1614156109aa57600080fd5b6000600260009054906101000a900473ffffffffffffffffffffffffffffffffffffffff1690506000809050600060648402905060008085126109ef578190506109f6565b8160000390505b60008060008090508673ffffffffffffffffffffffffffffffffffffffff1663c2bc2efc336040518263ffffffff1660e01b8152600401808273ffffffffffffffffffffffffffffffffffffffff1673ffffffffffffffffffffffffffffffffffffffff168152602001915050604080518083038186803b158015610a7a57600080fd5b505afa158015610a8e573d6000803e3d6000fd5b505050506040513d6040811015610aa457600080fd5b810190808051906020019092919080519060200190929190505050809350819450505060008314610ae15760648083028481610adc57fe5b050290505b600081138015610af2575060008414155b15610b1757600a84820181610b0357fe5b0595506000881215610b16578560000395505b5b858501945042600460003373ffffffffffffffffffffffffffffffffffffffff1673ffffffffffffffffffffffffffffffffffffffff168152602001908152602001600020819055507f5df952557c4acd5185f164dba741f992b65e22830c4a5f2092349fb350bf3f33338a87604051808473ffffffffffffffffffffffffffffffffffffffff1673ffffffffffffffffffffffffffffffffffffffff1681526020018373ffffffffffffffffffffffffffffffffffffffff1673ffffffffffffffffffffffffffffffffffffffff168152602001828152602001935050505060405180910390a18673ffffffffffffffffffffffffffffffffffffffff16635cd60dad8a876040518363ffffffff1660e01b8152600401808373ffffffffffffffffffffffffffffffffffffffff1673ffffffffffffffffffffffffffffffffffffffff16815260200182815260200192505050600060405180830381600087803b158015610c8657600080fd5b505af1158015610c9a573d6000803e3d6000fd5b5050505050505050505050505056fea165627a7a72305820469ec0d318dfe5723d13f2e9eeeab72a4dbe942b4e712d3b27328e523f00a1480029",
  "source": "pragma solidity ^0.5.8;\n\n/*  Copyright 2017 GoInto, LLC\n\n    Licensed under the Apache License, Version 2.0 (the \"License\");\n    you may not use this file except in compliance with the License.\n    You may obtain a copy of the License at\n\n        http://www.apache.org/licenses/LICENSE-2.0\n\n    Unless required by applicable law or agreed to in writing, software\n    distributed under the License is distributed on an \"AS IS\" BASIS,\n    WITHOUT WARRANTIES OR CONDITIONS OF ANY KIND, either express or implied.\n    See the License for the specific language governing permissions and\n    limitations under the License.\n*/\n\nimport \"./ratingstore.sol\";\n\n/** Etherep - Simple Ethereum reputation by address\n\n    Contract that takes ratings and calculates a reputation score.  It uses the \n    RatingStore contract as its data storage.\n\n    Ratings can be from -5(worst) to 5(best) and are weighted according to the \n    score of the rater. This weight can have a significant skewing towards the\n    positive or negative but the representative score can not be below -5 or \n    above 5.  Raters can not rate more often than waitTime, nor can they rate \n    themselves.\n\n    Scores are returned asx a false-float, where 425 = 4.25 on the Etherep scale.\n */\ncontract Etherep {\n\n    bool internal debug;\n    address internal manager;\n    uint internal fee;\n    address internal storageAddress;\n    uint internal waitTime;\n    mapping (address => uint) internal lastRating;\n\n    /// Events\n    event Error(\n        address sender,\n        string message\n    );\n    event Debug(string message);\n    event DebugInt(int message);\n    event DebugUint(uint message);\n    event Rating(\n        address by, \n        address who, \n        int rating\n    );\n    event FeeChanged(uint f);\n    event DelayChanged(uint d);\n\n    /**\n     * Only a certain address can use this modified method\n     * @param by The address that can use the method\n     */\n    modifier onlyBy(address by) { \n        require(msg.sender == by);\n        _; \n    }\n\n    /**\n     * Delay ratings to be at least waitTime apart\n     */\n    modifier delay() {\n        if (debug == false && lastRating[msg.sender] > now - waitTime) {\n            revert();\n        }\n        _;\n    }\n\n    /**\n     * Require the minimum fee to be met\n     */\n    modifier requireFee() {\n        require(msg.value >= fee);\n        _;\n    }\n\n    /** \n     * Constructor\n     * @param _manager The key that can make changes to this contract\n     * @param _fee The variable fee that will be charged per rating\n     * @param _storageAddress The address to the storage contract\n     * @param _wait The minimum time in seconds a user has to wait between ratings\n     */\n    constructor (address _manager, uint _fee, address _storageAddress, uint _wait) public {\n        manager = _manager;\n        fee = _fee;\n        storageAddress = _storageAddress;\n        waitTime = _wait;\n        debug = false;\n    }\n\n    /**\n     * Set debug\n     * @param d The debug value that should be set\n     */\n    function setDebug(bool d) external onlyBy(manager) {\n        debug = d;\n    }\n\n    /**\n     * Get debug\n     * @return debug\n     */\n    function getDebug() external view returns (bool) {\n        return debug;\n    }\n\n    /**\n     * Change the fee\n     * @param newFee New rating fee in Wei\n     */\n    function setFee(uint newFee) external onlyBy(manager) {\n        fee = newFee;\n        emit FeeChanged(fee);\n    }\n\n    /**\n     * Get the fee\n     * @return fee The current fee in Wei\n     */\n    function getFee() external view returns (uint) {\n        return fee;\n    }\n\n    /**\n     * Change the rating delay\n     * @param _delay Delay in seconds\n     */\n    function setDelay(uint _delay) external onlyBy(manager) {\n        waitTime = _delay;\n        emit DelayChanged(waitTime);\n    }\n\n    /**\n     * Get the delay time\n     * @return delay The current rating delay time in seconds\n     */\n    function getDelay() external view returns (uint) {\n        return waitTime;\n    }\n\n    /**\n     * Change the manager\n     * @param who The address of the new manager\n     */\n    function setManager(address who) external onlyBy(manager) {\n        manager = who;\n    }\n\n    /**\n     * Get the manager\n     * @return manager The address of this contract's manager\n     */\n    function getManager() external view returns (address) {\n        return manager;\n    }\n\n    /**\n     * Drain fees\n     */\n    // function drain() external onlyBy(manager) {\n    //     require(address(this).balance > 0);\n    //     manager.transfer(address(this).balance);\n    // }\n\n    /** \n     * Adds a rating to an address' cumulative score\n     * @param who The address that is being rated\n     * @param rating The rating(-5 to 5)\n     * @return success If the rating was processed successfully\n     */\n    function rate(address who, int rating) external payable delay requireFee {\n\n        // Check rating for sanity\n        require(rating <= 5 && rating >= -5);\n\n        // A rater can not rate himself\n        require(who != msg.sender);\n\n        // Get an instance of the RatingStore contract\n        RatingStore store = RatingStore(storageAddress);\n        \n        // Standard weight\n        int weight = 0;\n\n        // Convert rating into a fake-float\n        int workRating = rating * 100;\n\n        // We need the absolute value\n        int absRating;\n        if (rating >= 0) {\n            absRating = workRating;\n        } else {\n            absRating = -workRating;\n        }\n\n        // Get details on sender if available\n        int senderScore;\n        uint senderRatings;\n        int senderCumulative = 0;\n        (senderScore, senderRatings) = store.get(msg.sender);\n\n        // Calculate cumulative score if available for use in weighting. We're \n        // acting as-if the two right-most places are decimals\n        if (senderScore != 0) {\n            senderCumulative = (senderScore / (int(senderRatings) * 100)) * 100;\n        }\n\n        // Calculate the weight if the sender has a positive rating\n        if (senderCumulative > 0 && absRating != 0) {\n\n            // Calculate a weight to add to the final rating calculation.  Only \n            // raters who have a positive cumulative score will have any extra \n            // weight.  Final weight should be between 40 and 100 and scale down\n            // depending on how strong the rating is.\n            weight = (senderCumulative + absRating) / 10;\n\n            // We need the final weight to be signed the same as the rating\n            if (rating < 0) {\n                weight = -weight;\n            }\n\n        }\n        \n        // Add the weight to the rating\n        workRating += weight;\n\n        // Set last rating timestamp\n        lastRating[msg.sender] = now;\n\n        // Send event of the rating\n        emit Rating(msg.sender, who, workRating);\n\n        // Add the new rating to their score\n        store.add(who, workRating);\n\n    }\n\n    /**\n     * Returns the cumulative score for an address\n     * @param who The address to lookup\n     * @return score The cumulative score\n     */\n    function getScore(address who) external view returns (int score) {\n\n        // Get an instance of our storage contract: RatingStore\n        RatingStore store = RatingStore(storageAddress);\n        \n        int cumulative;\n        uint ratings;\n\n        // Get the raw scores from RatingStore\n        (cumulative, ratings) = store.get(who);\n        \n        // Calculate the score as a false-float as an average of all ratings\n        score = cumulative / int(ratings);\n\n        // We only want to display a maximum of 500 or minimum of -500, even \n        // if it's weighted outside of that range\n        if (score > 500) {\n            score = 500;\n        } else if (score < -500) {\n            score = -500;\n        }\n\n    }\n\n    /**\n     * Returns the cumulative score and count of ratings for an address\n     * @param who The address to lookup\n     * @return score The cumulative score\n     * @return count How many ratings have been made\n     */\n    function getScoreAndCount(address who) external view returns (int score, uint ratings) {\n\n        // Get an instance of our storage contract: RatingStore\n        RatingStore store = RatingStore(storageAddress);\n        \n        int cumulative;\n\n        // Get the raw scores from RatingStore\n        (cumulative, ratings) = store.get(who);\n        \n        // The score should have room for 2 decimal places, but ratings is a \n        // single count\n        score = cumulative / int(ratings);\n\n    }\n\n}",
  "sourcePath": "/home/cecilimon/Auctionly/contracts/etherep.sol",
  "compiler": {
    "name": "solc",
    "version": "0.5.8+commit.23d335f2.Emscripten.clang"
  },
  "schemaVersion": "3.0.17",
  "updatedAt": "2019-11-18T16:14:34.015Z",
  "devdoc": {
    "methods": {
      "constructor": {
        "params": {
          "_fee": "The variable fee that will be charged per rating",
          "_manager": "The key that can make changes to this contract",
          "_storageAddress": "The address to the storage contract",
          "_wait": "The minimum time in seconds a user has to wait between ratings"
        }
      },
      "getDebug()": {
        "return": "debug"
      },
      "getDelay()": {
        "return": "delay The current rating delay time in seconds"
      },
      "getFee()": {
        "return": "fee The current fee in Wei"
      },
      "getManager()": {
        "return": "manager The address of this contract's manager"
      },
      "getScore(address)": {
        "params": {
          "who": "The address to lookup"
        },
        "return": "score The cumulative score"
      },
      "getScoreAndCount(address)": {
        "params": {
          "who": "The address to lookup"
        },
        "return": "score The cumulative scorecount How many ratings have been made"
      },
      "rate(address,int256)": {
        "params": {
          "rating": "The rating(-5 to 5)",
          "who": "The address that is being rated"
        },
        "return": "success If the rating was processed successfully"
      },
      "setDebug(bool)": {
        "params": {
          "d": "The debug value that should be set"
        }
      },
      "setDelay(uint256)": {
        "params": {
          "_delay": "Delay in seconds"
        }
      },
      "setFee(uint256)": {
        "params": {
          "newFee": "New rating fee in Wei"
        }
      },
      "setManager(address)": {
        "params": {
          "who": "The address of the new manager"
        }
      }
    }
  },
  "userdoc": {
    "methods": {
      "constructor": "Constructor",
      "getDebug()": {
        "notice": "Get debug"
      },
      "getDelay()": {
        "notice": "Get the delay time"
      },
      "getFee()": {
        "notice": "Get the fee"
      },
      "getManager()": {
        "notice": "Get the manager"
      },
      "getScore(address)": {
        "notice": "Returns the cumulative score for an address"
      },
      "getScoreAndCount(address)": {
        "notice": "Returns the cumulative score and count of ratings for an address"
      },
      "rate(address,int256)": {
        "notice": "Adds a rating to an address' cumulative score"
      },
      "setDebug(bool)": {
        "notice": "Set debug"
      },
      "setDelay(uint256)": {
        "notice": "Change the rating delay"
      },
      "setFee(uint256)": {
        "notice": "Change the fee"
      },
      "setManager(address)": {
        "notice": "Change the manager"
      }
    },
    "notice": "Etherep - Simple Ethereum reputation by address Contract that takes ratings and calculates a reputation score.  It uses the  RatingStore contract as its data storage. Ratings can be from -5(worst) to 5(best) and are weighted according to the  score of the rater. This weight can have a significant skewing towards the positive or negative but the representative score can not be below -5 or  above 5.  Raters can not rate more often than waitTime, nor can they rate  themselves. Scores are returned asx a false-float, where 425 = 4.25 on the Etherep scale."
  }
}