{
  "contractName": "RateStorage",
  "abi": [
    {
      "constant": false,
      "inputs": [
        {
          "name": "target",
          "type": "address"
        },
        {
          "name": "cumulative",
          "type": "int256"
        },
        {
          "name": "total",
          "type": "uint256"
        }
      ],
      "name": "set",
      "outputs": [],
      "payable": false,
      "stateMutability": "nonpayable",
      "type": "function"
    },
    {
      "constant": false,
      "inputs": [
        {
          "name": "target",
          "type": "address"
        },
        {
          "name": "wScore",
          "type": "int256"
        }
      ],
      "name": "add",
      "outputs": [],
      "payable": false,
      "stateMutability": "nonpayable",
      "type": "function"
    },
    {
      "constant": true,
      "inputs": [
        {
          "name": "target",
          "type": "address"
        }
      ],
      "name": "get",
      "outputs": [
        {
          "name": "",
          "type": "int256"
        },
        {
          "name": "",
          "type": "uint256"
        }
      ],
      "payable": false,
      "stateMutability": "view",
      "type": "function"
    }
  ],
  "bytecode": "0x608060405234801561001057600080fd5b5061057b806100206000396000f3fe608060405234801561001057600080fd5b50600436106100415760003560e01c80635cd60dad146100465780637223cd1914610094578063c2bc2efc146100ec575b600080fd5b6100926004803603604081101561005c57600080fd5b81019080803573ffffffffffffffffffffffffffffffffffffffff1690602001909291908035906020019092919050505061014b565b005b6100ea600480360360608110156100aa57600080fd5b81019080803573ffffffffffffffffffffffffffffffffffffffff16906020019092919080359060200190929190803590602001909291905050506102d7565b005b61012e6004803603602081101561010257600080fd5b81019080803573ffffffffffffffffffffffffffffffffffffffff169060200190929190505050610451565b604051808381526020018281526020019250505060405180910390f35b6000808373ffffffffffffffffffffffffffffffffffffffff1673ffffffffffffffffffffffffffffffffffffffff16815260200190815260200160002060000160009054906101000a900460ff166102345760405180606001604052806001151581526020016000815260200160008152506000808473ffffffffffffffffffffffffffffffffffffffff1673ffffffffffffffffffffffffffffffffffffffff16815260200190815260200160002060008201518160000160006101000a81548160ff02191690831515021790555060208201518160010155604082015181600201559050505b806000808473ffffffffffffffffffffffffffffffffffffffff1673ffffffffffffffffffffffffffffffffffffffff1681526020019081526020016000206001016000828254019250508190555060016000808473ffffffffffffffffffffffffffffffffffffffff1673ffffffffffffffffffffffffffffffffffffffff168152602001908152602001600020600201600082825401925050819055505050565b6000808473ffffffffffffffffffffffffffffffffffffffff1673ffffffffffffffffffffffffffffffffffffffff16815260200190815260200160002060000160009054906101000a900460ff166103c05760405180606001604052806001151581526020016000815260200160008152506000808573ffffffffffffffffffffffffffffffffffffffff1673ffffffffffffffffffffffffffffffffffffffff16815260200190815260200160002060008201518160000160006101000a81548160ff02191690831515021790555060208201518160010155604082015181600201559050505b816000808573ffffffffffffffffffffffffffffffffffffffff1673ffffffffffffffffffffffffffffffffffffffff16815260200190815260200160002060010181905550806000808573ffffffffffffffffffffffffffffffffffffffff1673ffffffffffffffffffffffffffffffffffffffff16815260200190815260200160002060020181905550505050565b600080600115156000808573ffffffffffffffffffffffffffffffffffffffff1673ffffffffffffffffffffffffffffffffffffffff16815260200190815260200160002060000160009054906101000a900460ff161515141561053c576000808473ffffffffffffffffffffffffffffffffffffffff1673ffffffffffffffffffffffffffffffffffffffff168152602001908152602001600020600101546000808573ffffffffffffffffffffffffffffffffffffffff1673ffffffffffffffffffffffffffffffffffffffff168152602001908152602001600020600201549150915061054a565b600080819150809050915091505b91509156fea165627a7a72305820ba65946711495bd20297a89857c0d0a7d37e75e9132030e73256a89bb28c3fca0029",
  "source": "pragma solidity ^0.5.8;\n\ncontract RateStorage {\n  struct Score {\n      bool exists;\n      int cumulativeScore;\n      uint totalRatings;\n  }\n\n  mapping (address => Score) internal scores;\n\n  /**\n   * Set a Score\n   * @param target The address' score we're setting\n   * @param cumulative The cumulative score for the address\n   * @param total Total individual ratings for the address\n   * @return success If the set was completed successfully\n   */\n  function set(address target, int cumulative, uint total) external  {\n      if (!scores[target].exists) {\n          scores[target] = Score(true, 0, 0);\n      }\n      scores[target].cumulativeScore = cumulative;\n      scores[target].totalRatings = total;\n  }\n\n  /**\n   * Add a rating\n   * @param target The address' score we're adding to\n   * @param wScore The weighted rating to add to the score\n   * @return success\n   */\n  function add(address target, int wScore) external  {\n      if (!scores[target].exists) {\n          scores[target] = Score(true, 0, 0);\n      }\n      scores[target].cumulativeScore += wScore;\n      scores[target].totalRatings += 1;\n  }\n  /**\n   * Get the score for an address\n   * @param target The address' score to return\n   * @return cumulative score\n   * @return total ratings\n   */\n  function get(address target) external view returns (int, uint) {\n      if (scores[target].exists == true) {\n          return (scores[target].cumulativeScore, scores[target].totalRatings);\n      } else {\n          return (0,0);\n      }\n  }\n}\n",
  "sourcePath": "/home/cecilimon/Auctionly/contracts/ratestorage.sol",
  "compiler": {
    "name": "solc",
    "version": "0.5.8+commit.23d335f2.Emscripten.clang"
  },
  "schemaVersion": "3.0.17",
  "updatedAt": "2019-11-29T07:07:41.252Z",
  "networkType": "ethereum",
  "devdoc": {
    "methods": {
      "add(address,int256)": {
        "params": {
          "target": "The address' score we're adding to",
          "wScore": "The weighted rating to add to the score"
        },
        "return": "success"
      },
      "get(address)": {
        "params": {
          "target": "The address' score to return"
        },
        "return": "cumulative scoretotal ratings"
      },
      "set(address,int256,uint256)": {
        "params": {
          "cumulative": "The cumulative score for the address",
          "target": "The address' score we're setting",
          "total": "Total individual ratings for the address"
        },
        "return": "success If the set was completed successfully"
      }
    }
  },
  "userdoc": {
    "methods": {
      "add(address,int256)": {
        "notice": "Add a rating"
      },
      "get(address)": {
        "notice": "Get the score for an address"
      },
      "set(address,int256,uint256)": {
        "notice": "Set a Score"
      }
    }
  }
}