{
  "contractName": "RatingStore",
  "abi": [
    {
      "inputs": [
        {
          "name": "_manager",
          "type": "address"
        },
        {
          "name": "_controller",
          "type": "address"
        }
      ],
      "payable": false,
      "stateMutability": "nonpayable",
      "type": "constructor"
    },
    {
      "anonymous": false,
      "inputs": [
        {
          "indexed": false,
          "name": "message",
          "type": "string"
        }
      ],
      "name": "Debug",
      "type": "event"
    },
    {
      "constant": false,
      "inputs": [
        {
          "name": "target",
          "type": "address"
        },
        {
          "name": "cumulative",
          "type": "int256"
        },
        {
          "name": "total",
          "type": "uint256"
        }
      ],
      "name": "set",
      "outputs": [],
      "payable": false,
      "stateMutability": "nonpayable",
      "type": "function"
    },
    {
      "constant": false,
      "inputs": [
        {
          "name": "target",
          "type": "address"
        },
        {
          "name": "wScore",
          "type": "int256"
        }
      ],
      "name": "add",
      "outputs": [],
      "payable": false,
      "stateMutability": "nonpayable",
      "type": "function"
    },
    {
      "constant": true,
      "inputs": [
        {
          "name": "target",
          "type": "address"
        }
      ],
      "name": "get",
      "outputs": [
        {
          "name": "",
          "type": "int256"
        },
        {
          "name": "",
          "type": "uint256"
        }
      ],
      "payable": false,
      "stateMutability": "view",
      "type": "function"
    },
    {
      "constant": false,
      "inputs": [
        {
          "name": "target",
          "type": "address"
        }
      ],
      "name": "reset",
      "outputs": [],
      "payable": false,
      "stateMutability": "nonpayable",
      "type": "function"
    },
    {
      "constant": true,
      "inputs": [],
      "name": "getManager",
      "outputs": [
        {
          "name": "",
          "type": "address"
        }
      ],
      "payable": false,
      "stateMutability": "view",
      "type": "function"
    },
    {
      "constant": false,
      "inputs": [
        {
          "name": "newManager",
          "type": "address"
        }
      ],
      "name": "setManager",
      "outputs": [],
      "payable": false,
      "stateMutability": "nonpayable",
      "type": "function"
    },
    {
      "constant": true,
      "inputs": [],
      "name": "getController",
      "outputs": [
        {
          "name": "",
          "type": "address"
        }
      ],
      "payable": false,
      "stateMutability": "view",
      "type": "function"
    },
    {
      "constant": false,
      "inputs": [
        {
          "name": "newController",
          "type": "address"
        }
      ],
      "name": "setController",
      "outputs": [],
      "payable": false,
      "stateMutability": "nonpayable",
      "type": "function"
    },
    {
      "constant": true,
      "inputs": [],
      "name": "getDebug",
      "outputs": [
        {
          "name": "",
          "type": "bool"
        }
      ],
      "payable": false,
      "stateMutability": "view",
      "type": "function"
    },
    {
      "constant": false,
      "inputs": [
        {
          "name": "_debug",
          "type": "bool"
        }
      ],
      "name": "setDebug",
      "outputs": [],
      "payable": false,
      "stateMutability": "nonpayable",
      "type": "function"
    }
  ],
  "bytecode": "0x608060405234801561001057600080fd5b50604051604080610db78339810180604052604081101561003057600080fd5b81019080805190602001909291908051906020019092919050505081600260006101000a81548173ffffffffffffffffffffffffffffffffffffffff021916908373ffffffffffffffffffffffffffffffffffffffff16021790555080600360006101000a81548173ffffffffffffffffffffffffffffffffffffffff021916908373ffffffffffffffffffffffffffffffffffffffff16021790555060008060006101000a81548160ff0219169083151502179055505050610cbf806100f86000396000f3fe608060405234801561001057600080fd5b506004361061009e5760003560e01c806392eefe9b1161006657806392eefe9b14610207578063c2bc2efc1461024b578063d0ebdbe7146102aa578063d184935d146102ee578063d5009584146103105761009e565b80630c2cb820146100a35780633018205f146100d35780635cd60dad1461011d5780636b8ab97d1461016b5780637223cd19146101af575b600080fd5b6100d1600480360360208110156100b957600080fd5b8101908080351515906020019092919050505061035a565b005b6100db6103d2565b604051808273ffffffffffffffffffffffffffffffffffffffff1673ffffffffffffffffffffffffffffffffffffffff16815260200191505060405180910390f35b6101696004803603604081101561013357600080fd5b81019080803573ffffffffffffffffffffffffffffffffffffffff169060200190929190803590602001909291905050506103fc565b005b6101ad6004803603602081101561018157600080fd5b81019080803573ffffffffffffffffffffffffffffffffffffffff169060200190929190505050610695565b005b610205600480360360608110156101c557600080fd5b81019080803573ffffffffffffffffffffffffffffffffffffffff169060200190929190803590602001909291908035906020019092919050505061078a565b005b6102496004803603602081101561021d57600080fd5b81019080803573ffffffffffffffffffffffffffffffffffffffff169060200190929190505050610a12565b005b61028d6004803603602081101561026157600080fd5b81019080803573ffffffffffffffffffffffffffffffffffffffff169060200190929190505050610ab2565b604051808381526020018281526020019250505060405180910390f35b6102ec600480360360208110156102c057600080fd5b81019080803573ffffffffffffffffffffffffffffffffffffffff169060200190929190505050610bb3565b005b6102f6610c53565b604051808215151515815260200191505060405180910390f35b610318610c69565b604051808273ffffffffffffffffffffffffffffffffffffffff1673ffffffffffffffffffffffffffffffffffffffff16815260200191505060405180910390f35b600260009054906101000a900473ffffffffffffffffffffffffffffffffffffffff168073ffffffffffffffffffffffffffffffffffffffff163373ffffffffffffffffffffffffffffffffffffffff16146103b557600080fd5b816000806101000a81548160ff0219169083151502179055505050565b6000600360009054906101000a900473ffffffffffffffffffffffffffffffffffffffff16905090565b600260009054906101000a900473ffffffffffffffffffffffffffffffffffffffff1673ffffffffffffffffffffffffffffffffffffffff163373ffffffffffffffffffffffffffffffffffffffff1614806104a55750600260009054906101000a900473ffffffffffffffffffffffffffffffffffffffff1673ffffffffffffffffffffffffffffffffffffffff163273ffffffffffffffffffffffffffffffffffffffff16145b806104fd5750600360009054906101000a900473ffffffffffffffffffffffffffffffffffffffff1673ffffffffffffffffffffffffffffffffffffffff163373ffffffffffffffffffffffffffffffffffffffff16145b61050657600080fd5b600160008373ffffffffffffffffffffffffffffffffffffffff1673ffffffffffffffffffffffffffffffffffffffff16815260200190815260200160002060000160009054906101000a900460ff166105f1576040518060600160405280600115158152602001600081526020016000815250600160008473ffffffffffffffffffffffffffffffffffffffff1673ffffffffffffffffffffffffffffffffffffffff16815260200190815260200160002060008201518160000160006101000a81548160ff02191690831515021790555060208201518160010155604082015181600201559050505b80600160008473ffffffffffffffffffffffffffffffffffffffff1673ffffffffffffffffffffffffffffffffffffffff1681526020019081526020016000206001016000828254019250508190555060018060008473ffffffffffffffffffffffffffffffffffffffff1673ffffffffffffffffffffffffffffffffffffffff168152602001908152602001600020600201600082825401925050819055505050565b600260009054906101000a900473ffffffffffffffffffffffffffffffffffffffff168073ffffffffffffffffffffffffffffffffffffffff163373ffffffffffffffffffffffffffffffffffffffff16146106f057600080fd5b6040518060600160405280600115158152602001600081526020016000815250600160008473ffffffffffffffffffffffffffffffffffffffff1673ffffffffffffffffffffffffffffffffffffffff16815260200190815260200160002060008201518160000160006101000a81548160ff02191690831515021790555060208201518160010155604082015181600201559050505050565b600260009054906101000a900473ffffffffffffffffffffffffffffffffffffffff1673ffffffffffffffffffffffffffffffffffffffff163373ffffffffffffffffffffffffffffffffffffffff1614806108335750600260009054906101000a900473ffffffffffffffffffffffffffffffffffffffff1673ffffffffffffffffffffffffffffffffffffffff163273ffffffffffffffffffffffffffffffffffffffff16145b8061088b5750600360009054906101000a900473ffffffffffffffffffffffffffffffffffffffff1673ffffffffffffffffffffffffffffffffffffffff163373ffffffffffffffffffffffffffffffffffffffff16145b61089457600080fd5b600160008473ffffffffffffffffffffffffffffffffffffffff1673ffffffffffffffffffffffffffffffffffffffff16815260200190815260200160002060000160009054906101000a900460ff1661097f576040518060600160405280600115158152602001600081526020016000815250600160008573ffffffffffffffffffffffffffffffffffffffff1673ffffffffffffffffffffffffffffffffffffffff16815260200190815260200160002060008201518160000160006101000a81548160ff02191690831515021790555060208201518160010155604082015181600201559050505b81600160008573ffffffffffffffffffffffffffffffffffffffff1673ffffffffffffffffffffffffffffffffffffffff1681526020019081526020016000206001018190555080600160008573ffffffffffffffffffffffffffffffffffffffff1673ffffffffffffffffffffffffffffffffffffffff16815260200190815260200160002060020181905550505050565b600260009054906101000a900473ffffffffffffffffffffffffffffffffffffffff168073ffffffffffffffffffffffffffffffffffffffff163373ffffffffffffffffffffffffffffffffffffffff1614610a6d57600080fd5b81600360006101000a81548173ffffffffffffffffffffffffffffffffffffffff021916908373ffffffffffffffffffffffffffffffffffffffff1602179055505050565b60008060011515600160008573ffffffffffffffffffffffffffffffffffffffff1673ffffffffffffffffffffffffffffffffffffffff16815260200190815260200160002060000160009054906101000a900460ff1615151415610ba057600160008473ffffffffffffffffffffffffffffffffffffffff1673ffffffffffffffffffffffffffffffffffffffff16815260200190815260200160002060010154600160008573ffffffffffffffffffffffffffffffffffffffff1673ffffffffffffffffffffffffffffffffffffffff1681526020019081526020016000206002015491509150610bae565b600080819150809050915091505b915091565b600260009054906101000a900473ffffffffffffffffffffffffffffffffffffffff168073ffffffffffffffffffffffffffffffffffffffff163373ffffffffffffffffffffffffffffffffffffffff1614610c0e57600080fd5b81600260006101000a81548173ffffffffffffffffffffffffffffffffffffffff021916908373ffffffffffffffffffffffffffffffffffffffff1602179055505050565b60008060009054906101000a900460ff16905090565b6000600260009054906101000a900473ffffffffffffffffffffffffffffffffffffffff1690509056fea165627a7a723058205b3d2cff591be1234be61e9a40721efea1e4df92933397afb4cd3fd117f306b10029",
  "source": "pragma solidity ^0.5.8;\n\n/*  Copyright 2017 GoInto, LLC\n\n    Licensed under the Apache License, Version 2.0 (the \"License\");\n    you may not use this file except in compliance with the License.\n    You may obtain a copy of the License at\n\n        http://www.apache.org/licenses/LICENSE-2.0\n\n    Unless required by applicable law or agreed to in writing, software\n    distributed under the License is distributed on an \"AS IS\" BASIS,\n    WITHOUT WARRANTIES OR CONDITIONS OF ANY KIND, either express or implied.\n    See the License for the specific language governing permissions and\n    limitations under the License.\n*/\n\n/**\n * Storage contract for Etherep to store ratings and score data.  It's been \n * separated from the main contract because this is much less likely to change\n * than the other parts.  It would allow for upgrading the main contract without\n * losing data.\n */\ncontract RatingStore {\n\n    struct Score {\n        bool exists;\n        int cumulativeScore;\n        uint totalRatings;\n    }\n\n    bool internal debug;\n    mapping (address => Score) internal scores;\n    // The manager with full access\n    address internal manager;\n    // The contract that has write accees\n    address internal controller;\n\n    /// Events\n    event Debug(string message);\n\n    /**\n     * Only the manager or controller can use this method\n     */\n    modifier restricted() { \n        require(msg.sender == manager || tx.origin == manager || msg.sender == controller);\n        _; \n    }\n\n    /**\n     * Only a certain address can use this modified method\n     * @param by The address that can use the method\n     */\n    modifier onlyBy(address by) { \n        require(msg.sender == by);\n        _; \n    }\n\n    /**\n     * Constructor\n     * @param _manager The address that has full access to the contract\n     * @param _controller The contract that can make write calls to this contract\n     */\n    constructor (address _manager, address _controller) public {\n        manager = _manager;\n        controller = _controller;\n        debug = false;\n    }\n\n    /**\n     * Set a Score\n     * @param target The address' score we're setting\n     * @param cumulative The cumulative score for the address\n     * @param total Total individual ratings for the address\n     * @return success If the set was completed successfully\n     */\n    function set(address target, int cumulative, uint total) external restricted {\n        if (!scores[target].exists) {\n            scores[target] = Score(true, 0, 0);\n        }\n        scores[target].cumulativeScore = cumulative;\n        scores[target].totalRatings = total;\n    }\n\n    /**\n     * Add a rating\n     * @param target The address' score we're adding to\n     * @param wScore The weighted rating to add to the score\n     * @return success\n     */\n    function add(address target, int wScore) external restricted {\n        if (!scores[target].exists) {\n            scores[target] = Score(true, 0, 0);\n        }\n        scores[target].cumulativeScore += wScore;\n        scores[target].totalRatings += 1;\n    }\n\n    /**\n     * Get the score for an address\n     * @param target The address' score to return\n     * @return cumulative score\n     * @return total ratings\n     */\n    function get(address target) external view returns (int, uint) {\n        if (scores[target].exists == true) {\n            return (scores[target].cumulativeScore, scores[target].totalRatings);\n        } else {\n            return (0,0);\n        }\n    }\n\n    /**\n     * Reset an entire score storage\n     * @param target The address we're wiping clean\n     */\n    function reset(address target) external onlyBy(manager) {\n        scores[target] = Score(true, 0,0);\n    }\n\n    /**\n     * Return the manager\n     * @return address The manager address\n     */\n    function getManager() external view returns (address) {\n        return manager;\n    }\n\n    /**\n     * Change the manager\n     * @param newManager The address we're setting as manager\n     */\n    function setManager(address newManager) external onlyBy(manager) {\n        manager = newManager;\n    }\n\n    /**\n     * Return the controller\n     * @return address The manager address\n     */\n    function getController() external view returns (address) {\n        return controller;\n    }\n\n    /**\n     * Change the controller\n     * @param newController The address we're setting as controller\n     */\n    function setController(address newController) external onlyBy(manager) {\n        controller = newController;\n    }\n\n    /**\n     * Return the debug setting\n     * @return bool debug\n     */\n    function getDebug() external view returns (bool) {\n        return debug;\n    }\n\n    /**\n     * Set debug\n     * @param _debug The bool value debug should be set to\n     */\n    function setDebug(bool _debug) external onlyBy(manager) {\n        debug = _debug;\n    }\n\n}",
  "sourcePath": "/home/cecilimon/Auctionly/contracts/ratingstore.sol",
  "compiler": {
    "name": "solc",
    "version": "0.5.8+commit.23d335f2.Emscripten.clang"
  },
  "schemaVersion": "3.0.17",
  "updatedAt": "2019-11-15T07:56:21.961Z",
  "devdoc": {
    "methods": {
      "add(address,int256)": {
        "params": {
          "target": "The address' score we're adding to",
          "wScore": "The weighted rating to add to the score"
        },
        "return": "success"
      },
      "constructor": {
        "params": {
          "_controller": "The contract that can make write calls to this contract",
          "_manager": "The address that has full access to the contract"
        }
      },
      "get(address)": {
        "params": {
          "target": "The address' score to return"
        },
        "return": "cumulative scoretotal ratings"
      },
      "getController()": {
        "return": "address The manager address"
      },
      "getDebug()": {
        "return": "bool debug"
      },
      "getManager()": {
        "return": "address The manager address"
      },
      "reset(address)": {
        "params": {
          "target": "The address we're wiping clean"
        }
      },
      "set(address,int256,uint256)": {
        "params": {
          "cumulative": "The cumulative score for the address",
          "target": "The address' score we're setting",
          "total": "Total individual ratings for the address"
        },
        "return": "success If the set was completed successfully"
      },
      "setController(address)": {
        "params": {
          "newController": "The address we're setting as controller"
        }
      },
      "setDebug(bool)": {
        "params": {
          "_debug": "The bool value debug should be set to"
        }
      },
      "setManager(address)": {
        "params": {
          "newManager": "The address we're setting as manager"
        }
      }
    }
  },
  "userdoc": {
    "methods": {
      "add(address,int256)": {
        "notice": "Add a rating"
      },
      "constructor": "Constructor",
      "get(address)": {
        "notice": "Get the score for an address"
      },
      "getController()": {
        "notice": "Return the controller"
      },
      "getDebug()": {
        "notice": "Return the debug setting"
      },
      "getManager()": {
        "notice": "Return the manager"
      },
      "reset(address)": {
        "notice": "Reset an entire score storage"
      },
      "set(address,int256,uint256)": {
        "notice": "Set a Score"
      },
      "setController(address)": {
        "notice": "Change the controller"
      },
      "setDebug(bool)": {
        "notice": "Set debug"
      },
      "setManager(address)": {
        "notice": "Change the manager"
      }
    },
    "notice": "Storage contract for Etherep to store ratings and score data.  It's been  separated from the main contract because this is much less likely to change than the other parts.  It would allow for upgrading the main contract without losing data."
  }
}