{
  "contractName": "Reputation",
  "abi": [
    {
      "inputs": [
        {
          "name": "_storageAddress",
          "type": "address"
        },
        {
          "name": "_wait",
          "type": "uint256"
        }
      ],
      "payable": false,
      "stateMutability": "nonpayable",
      "type": "constructor"
    },
    {
      "anonymous": false,
      "inputs": [
        {
          "indexed": false,
          "name": "sender",
          "type": "address"
        },
        {
          "indexed": false,
          "name": "message",
          "type": "string"
        }
      ],
      "name": "Error",
      "type": "event"
    },
    {
      "anonymous": false,
      "inputs": [
        {
          "indexed": false,
          "name": "by",
          "type": "address"
        },
        {
          "indexed": false,
          "name": "who",
          "type": "address"
        },
        {
          "indexed": false,
          "name": "rating",
          "type": "int256"
        }
      ],
      "name": "Rating",
      "type": "event"
    },
    {
      "anonymous": false,
      "inputs": [
        {
          "indexed": false,
          "name": "scoreVal",
          "type": "int256"
        }
      ],
      "name": "scoreValue",
      "type": "event"
    },
    {
      "constant": false,
      "inputs": [
        {
          "name": "who",
          "type": "address"
        },
        {
          "name": "rating",
          "type": "int256"
        }
      ],
      "name": "rate",
      "outputs": [],
      "payable": true,
      "stateMutability": "payable",
      "type": "function"
    },
    {
      "constant": true,
      "inputs": [
        {
          "name": "who",
          "type": "address"
        }
      ],
      "name": "getScore",
      "outputs": [
        {
          "name": "score",
          "type": "int256"
        }
      ],
      "payable": false,
      "stateMutability": "view",
      "type": "function"
    },
    {
      "constant": true,
      "inputs": [
        {
          "name": "who",
          "type": "address"
        }
      ],
      "name": "getScoreAndCount",
      "outputs": [
        {
          "name": "score",
          "type": "int256"
        },
        {
          "name": "ratings",
          "type": "uint256"
        }
      ],
      "payable": false,
      "stateMutability": "view",
      "type": "function"
    }
  ],
  "bytecode": "0x608060405234801561001057600080fd5b506040516040806109298339810180604052604081101561003057600080fd5b810190808051906020019092919080519060200190929190505050816000806101000a81548173ffffffffffffffffffffffffffffffffffffffff021916908373ffffffffffffffffffffffffffffffffffffffff160217905550806001819055505050610886806100a36000396000f3fe6080604052600436106100345760003560e01c8063ab413a7e14610039578063d47875d0146100a5578063e7e3e1671461010a575b600080fd5b34801561004557600080fd5b506100886004803603602081101561005c57600080fd5b81019080803573ffffffffffffffffffffffffffffffffffffffff169060200190929190505050610158565b604051808381526020018281526020019250505060405180910390f35b3480156100b157600080fd5b506100f4600480360360208110156100c857600080fd5b81019080803573ffffffffffffffffffffffffffffffffffffffff16906020019092919050505061025f565b6040518082815260200191505060405180910390f35b6101566004803603604081101561012057600080fd5b81019080803573ffffffffffffffffffffffffffffffffffffffff169060200190929190803590602001909291905050506103c7565b005b60008060008060009054906101000a900473ffffffffffffffffffffffffffffffffffffffff16905060008173ffffffffffffffffffffffffffffffffffffffff1663c2bc2efc866040518263ffffffff1660e01b8152600401808273ffffffffffffffffffffffffffffffffffffffff1673ffffffffffffffffffffffffffffffffffffffff168152602001915050604080518083038186803b1580156101ff57600080fd5b505afa158015610213573d6000803e3d6000fd5b505050506040513d604081101561022957600080fd5b810190808051906020019092919080519060200190929190505050809450819250505082818161025557fe5b0593505050915091565b6000806000809054906101000a900473ffffffffffffffffffffffffffffffffffffffff1690506000808273ffffffffffffffffffffffffffffffffffffffff1663c2bc2efc866040518263ffffffff1660e01b8152600401808273ffffffffffffffffffffffffffffffffffffffff1673ffffffffffffffffffffffffffffffffffffffff168152602001915050604080518083038186803b15801561030557600080fd5b505afa158015610319573d6000803e3d6000fd5b505050506040513d604081101561032f57600080fd5b810190808051906020019092919080519060200190929190505050809250819350505080828161035b57fe5b0593506101f4841315610372576101f493506103bf565b7ffffffffffffffffffffffffffffffffffffffffffffffffffffffffffffffe0c8412156103be577ffffffffffffffffffffffffffffffffffffffffffffffffffffffffffffffe0c93505b5b505050919050565b6001544203600260003373ffffffffffffffffffffffffffffffffffffffff1673ffffffffffffffffffffffffffffffffffffffff16815260200190815260200160002054111561041757600080fd5b6005811315801561044857507ffffffffffffffffffffffffffffffffffffffffffffffffffffffffffffffffb8112155b6104ba576040517f08c379a00000000000000000000000000000000000000000000000000000000081526004018080602001828103825260158152602001807f52617465206265747765656e202d3520616e642035000000000000000000000081525060200191505060405180910390fd5b3373ffffffffffffffffffffffffffffffffffffffff168273ffffffffffffffffffffffffffffffffffffffff16141561055c576040517f08c379a00000000000000000000000000000000000000000000000000000000081526004018080602001828103825260158152602001807f596f752063616e207261746520796f757273656c66000000000000000000000081525060200191505060405180910390fd5b60008060009054906101000a900473ffffffffffffffffffffffffffffffffffffffff1690506000809050600060648402905060008085126105a0578190506105a7565b8160000390505b60008060008090508673ffffffffffffffffffffffffffffffffffffffff1663c2bc2efc336040518263ffffffff1660e01b8152600401808273ffffffffffffffffffffffffffffffffffffffff1673ffffffffffffffffffffffffffffffffffffffff168152602001915050604080518083038186803b15801561062b57600080fd5b505afa15801561063f573d6000803e3d6000fd5b505050506040513d604081101561065557600080fd5b810190808051906020019092919080519060200190929190505050809350819450505060008314610692576064808302848161068d57fe5b050290505b6000811380156106a3575060008414155b156106c857600a848201816106b457fe5b05955060008812156106c7578560000395505b5b858501945042600260003373ffffffffffffffffffffffffffffffffffffffff1673ffffffffffffffffffffffffffffffffffffffff168152602001908152602001600020819055507f5df952557c4acd5185f164dba741f992b65e22830c4a5f2092349fb350bf3f33338a87604051808473ffffffffffffffffffffffffffffffffffffffff1673ffffffffffffffffffffffffffffffffffffffff1681526020018373ffffffffffffffffffffffffffffffffffffffff1673ffffffffffffffffffffffffffffffffffffffff168152602001828152602001935050505060405180910390a18673ffffffffffffffffffffffffffffffffffffffff16635cd60dad8a876040518363ffffffff1660e01b8152600401808373ffffffffffffffffffffffffffffffffffffffff1673ffffffffffffffffffffffffffffffffffffffff16815260200182815260200192505050600060405180830381600087803b15801561083757600080fd5b505af115801561084b573d6000803e3d6000fd5b5050505050505050505050505056fea165627a7a7230582060c31baeaa93e15aaed9f3efe1a76cac6e0c75e4ea2bf91b93e7d182dc667a2e0029",
  "source": "pragma solidity ^0.5.8;\n\nimport \"./ratestorage.sol\";\n\ncontract Reputation {\n\n  address internal storageAddress;\n  uint internal waitTime;\n  mapping (address => uint) internal lastRating;\n\n  event Error(\n      address sender,\n      string message\n  );\n\n  event Rating(\n      address by,\n      address who,\n      int rating\n  );\n\n  event scoreValue(\n    int scoreVal\n  );\n  /**\n   * Delay ratings to be at least waitTime apart\n   */\n  modifier delay() {\n      if (lastRating[msg.sender] > now - waitTime) {\n          revert();\n      }\n      _;\n  }\n\n/*Contract that takes ratings and calculates a reputation score.  It uses the\n    RatingStore contract as its data storage.\n    Ratings can be from -5(worst) to 5(best) and are weighted according to the\n    score of the rater. This weight can have a significant skewing towards the\n    positive or negative but the representative score can not be below -5 or\n    above 5. Raters can not rate more often than waitTime, nor can they rate\n    themselves. */\n\n//waitTime is usually 60\n  constructor(address _storageAddress, uint _wait) public {\n    storageAddress = _storageAddress;\n    waitTime = _wait;\n  }\n\n  function rate(address who, int rating) external delay payable {\n\n      // Check rating for sanity\n      require(rating <= 5 && rating >= -5, \"Rate between -5 and 5\");\n\n      // A rater can not rate himself\n      require(who != msg.sender, \"You can rate yourself\");\n\n      // Get an instance of the RateStorage contract\n      RateStorage store = RateStorage(storageAddress);\n\n      // Standard weight\n      int weight = 0;\n\n      // Convert rating into a fake-float\n      int workRating = rating * 100;\n\n      // We need the absolute value\n      int absRating;\n      if (rating >= 0) {\n          absRating = workRating;\n      } else {\n          absRating = -workRating;\n      }\n\n      // Get details on sender if available\n      int senderScore;\n      uint senderRatings;\n      int senderCumulative = 0;\n      (senderScore, senderRatings) = store.get(msg.sender);\n\n      // Calculate cumulative score if available for use in weighting. We're\n      // acting as-if the two right-most places are decimals\n      if (senderScore != 0) {\n          senderCumulative = (senderScore / (int(senderRatings) * 100)) * 100;\n      }\n\n      // Calculate the weight if the sender has a positive rating\n      if (senderCumulative > 0 && absRating != 0) {\n\n          // Calculate a weight to add to the final rating calculation.  Only\n          // raters who have a positive cumulative score will have any extra\n          // weight.  Final weight should be between 40 and 100 and scale down\n          // depending on how strong the rating is.\n          weight = (senderCumulative + absRating) / 10;\n\n          // We need the final weight to be signed the same as the rating\n          if (rating < 0) {\n              weight = -weight;\n          }\n\n      }\n\n      // Add the weight to the rating\n      workRating += weight;\n\n      // Set last rating timestamp\n      lastRating[msg.sender] = now;\n\n      // Send event of the rating\n      emit Rating(msg.sender, who, workRating);\n\n      // Add the new rating to their score\n      store.add(who, workRating);\n\n  }\n\n  /**\n   * Returns the cumulative score for an address\n   * @param who The address to lookup\n   * @return score The cumulative score\n   */\n  function getScore(address who) external view returns (int score) {\n\n      // Get an instance of our storage contract: RateStorage\n      RateStorage store = RateStorage(storageAddress);\n\n      int cumulative;\n      uint ratings;\n\n      // Get the raw scores from RateStorage\n      (cumulative, ratings) = store.get(who);\n\n      // Calculate the score as a false-float as an average of all ratings\n      score = cumulative / int(ratings);\n\n      // We only want to display a maximum of 500 or minimum of -500, even\n      // if it's weighted outside of that range\n      if (score > 500) {\n          score = 500;\n      } else if (score < -500) {\n          score = -500;\n      }\n      \n    }\n\n  /**\n   * Returns the cumulative score and count of ratings for an address\n   * @param who The address to lookup\n   * @return score The cumulative score\n   * @return count How many ratings have been made\n   */\n  function getScoreAndCount(address who) external view returns (int score, uint ratings) {\n\n      // Get an instance of our storage contract: RateStorage\n      RateStorage store = RateStorage(storageAddress);\n\n      int cumulative;\n\n      // Get the raw scores from RateStorage\n      (cumulative, ratings) = store.get(who);\n\n      // The score should have room for 2 decimal places, but ratings is a\n      // single count\n      score = cumulative / int(ratings);\n\n  }\n}\n",
  "sourcePath": "/home/cecilimon/Auctionly/contracts/Reputation.sol",
  "compiler": {
    "name": "solc",
    "version": "0.5.8+commit.23d335f2.Emscripten.clang"
  },
  "schemaVersion": "3.0.17",
  "updatedAt": "2019-11-27T08:17:22.706Z",
  "networkType": "ethereum",
  "devdoc": {
    "methods": {
      "getScore(address)": {
        "params": {
          "who": "The address to lookup"
        },
        "return": "score The cumulative score"
      },
      "getScoreAndCount(address)": {
        "params": {
          "who": "The address to lookup"
        },
        "return": "score The cumulative scorecount How many ratings have been made"
      }
    }
  },
  "userdoc": {
    "methods": {
      "getScore(address)": {
        "notice": "Returns the cumulative score for an address"
      },
      "getScoreAndCount(address)": {
        "notice": "Returns the cumulative score and count of ratings for an address"
      }
    }
  }
}